{
  "_format": "hh-sol-artifact-1",
  "contractName": "NFTMarketplace",
  "sourceName": "contracts/NFTMarket.sol",
  "abi": [
    {
      "inputs": [],
      "stateMutability": "nonpayable",
      "type": "constructor"
    },
    {
      "anonymous": false,
      "inputs": [
        {
          "indexed": true,
          "internalType": "address",
          "name": "owner",
          "type": "address"
        },
        {
          "indexed": true,
          "internalType": "address",
          "name": "approved",
          "type": "address"
        },
        {
          "indexed": true,
          "internalType": "uint256",
          "name": "tokenId",
          "type": "uint256"
        }
      ],
      "name": "Approval",
      "type": "event"
    },
    {
      "anonymous": false,
      "inputs": [
        {
          "indexed": true,
          "internalType": "address",
          "name": "owner",
          "type": "address"
        },
        {
          "indexed": true,
          "internalType": "address",
          "name": "operator",
          "type": "address"
        },
        {
          "indexed": false,
          "internalType": "bool",
          "name": "approved",
          "type": "bool"
        }
      ],
      "name": "ApprovalForAll",
      "type": "event"
    },
    {
      "anonymous": false,
      "inputs": [
        {
          "indexed": true,
          "internalType": "uint256",
          "name": "tokenId",
          "type": "uint256"
        },
        {
          "indexed": false,
          "internalType": "address",
          "name": "seller",
          "type": "address"
        },
        {
          "indexed": false,
          "internalType": "address",
          "name": "owner",
          "type": "address"
        },
        {
          "indexed": false,
          "internalType": "uint256",
          "name": "price",
          "type": "uint256"
        },
        {
          "indexed": false,
          "internalType": "bool",
          "name": "sold",
          "type": "bool"
        }
      ],
      "name": "MarketItemCreated",
      "type": "event"
    },
    {
      "anonymous": false,
      "inputs": [
        {
          "indexed": true,
          "internalType": "address",
          "name": "from",
          "type": "address"
        },
        {
          "indexed": true,
          "internalType": "address",
          "name": "to",
          "type": "address"
        },
        {
          "indexed": true,
          "internalType": "uint256",
          "name": "tokenId",
          "type": "uint256"
        }
      ],
      "name": "Transfer",
      "type": "event"
    },
    {
      "inputs": [
        {
          "internalType": "address",
          "name": "to",
          "type": "address"
        },
        {
          "internalType": "uint256",
          "name": "tokenId",
          "type": "uint256"
        }
      ],
      "name": "approve",
      "outputs": [],
      "stateMutability": "nonpayable",
      "type": "function"
    },
    {
      "inputs": [
        {
          "internalType": "address",
          "name": "owner",
          "type": "address"
        }
      ],
      "name": "balanceOf",
      "outputs": [
        {
          "internalType": "uint256",
          "name": "",
          "type": "uint256"
        }
      ],
      "stateMutability": "view",
      "type": "function"
    },
    {
      "inputs": [
        {
          "internalType": "uint256",
          "name": "tokenId",
          "type": "uint256"
        }
      ],
      "name": "cancelItemListing",
      "outputs": [],
      "stateMutability": "nonpayable",
      "type": "function"
    },
    {
      "inputs": [
        {
          "internalType": "uint256",
          "name": "tokenId",
          "type": "uint256"
        }
      ],
      "name": "createMarketSale",
      "outputs": [],
      "stateMutability": "payable",
      "type": "function"
    },
    {
      "inputs": [
        {
          "internalType": "string",
          "name": "tokenURI",
          "type": "string"
        },
        {
          "internalType": "uint256",
          "name": "price",
          "type": "uint256"
        }
      ],
      "name": "createToken",
      "outputs": [
        {
          "internalType": "uint256",
          "name": "",
          "type": "uint256"
        }
      ],
      "stateMutability": "payable",
      "type": "function"
    },
    {
      "inputs": [],
      "name": "fetchItemsListed",
      "outputs": [
        {
          "components": [
            {
              "internalType": "uint256",
              "name": "tokenId",
              "type": "uint256"
            },
            {
              "internalType": "address payable",
              "name": "seller",
              "type": "address"
            },
            {
              "internalType": "address payable",
              "name": "owner",
              "type": "address"
            },
            {
              "internalType": "uint256",
              "name": "price",
              "type": "uint256"
            },
            {
              "internalType": "bool",
              "name": "sold",
              "type": "bool"
            }
          ],
          "internalType": "struct NFTMarketplace.MarketItem[]",
          "name": "",
          "type": "tuple[]"
        }
      ],
      "stateMutability": "view",
      "type": "function"
    },
    {
      "inputs": [],
      "name": "fetchMarketItems",
      "outputs": [
        {
          "components": [
            {
              "internalType": "uint256",
              "name": "tokenId",
              "type": "uint256"
            },
            {
              "internalType": "address payable",
              "name": "seller",
              "type": "address"
            },
            {
              "internalType": "address payable",
              "name": "owner",
              "type": "address"
            },
            {
              "internalType": "uint256",
              "name": "price",
              "type": "uint256"
            },
            {
              "internalType": "bool",
              "name": "sold",
              "type": "bool"
            }
          ],
          "internalType": "struct NFTMarketplace.MarketItem[]",
          "name": "",
          "type": "tuple[]"
        }
      ],
      "stateMutability": "view",
      "type": "function"
    },
    {
      "inputs": [],
      "name": "fetchMyNFTs",
      "outputs": [
        {
          "components": [
            {
              "internalType": "uint256",
              "name": "tokenId",
              "type": "uint256"
            },
            {
              "internalType": "address payable",
              "name": "seller",
              "type": "address"
            },
            {
              "internalType": "address payable",
              "name": "owner",
              "type": "address"
            },
            {
              "internalType": "uint256",
              "name": "price",
              "type": "uint256"
            },
            {
              "internalType": "bool",
              "name": "sold",
              "type": "bool"
            }
          ],
          "internalType": "struct NFTMarketplace.MarketItem[]",
          "name": "",
          "type": "tuple[]"
        }
      ],
      "stateMutability": "view",
      "type": "function"
    },
    {
      "inputs": [
        {
          "internalType": "uint256",
          "name": "tokenId",
          "type": "uint256"
        }
      ],
      "name": "getApproved",
      "outputs": [
        {
          "internalType": "address",
          "name": "",
          "type": "address"
        }
      ],
      "stateMutability": "view",
      "type": "function"
    },
    {
      "inputs": [],
      "name": "getListingPrice",
      "outputs": [
        {
          "internalType": "uint256",
          "name": "",
          "type": "uint256"
        }
      ],
      "stateMutability": "view",
      "type": "function"
    },
    {
      "inputs": [
        {
          "internalType": "address",
          "name": "owner",
          "type": "address"
        },
        {
          "internalType": "address",
          "name": "operator",
          "type": "address"
        }
      ],
      "name": "isApprovedForAll",
      "outputs": [
        {
          "internalType": "bool",
          "name": "",
          "type": "bool"
        }
      ],
      "stateMutability": "view",
      "type": "function"
    },
    {
      "inputs": [],
      "name": "name",
      "outputs": [
        {
          "internalType": "string",
          "name": "",
          "type": "string"
        }
      ],
      "stateMutability": "view",
      "type": "function"
    },
    {
      "inputs": [
        {
          "internalType": "uint256",
          "name": "tokenId",
          "type": "uint256"
        }
      ],
      "name": "ownerOf",
      "outputs": [
        {
          "internalType": "address",
          "name": "",
          "type": "address"
        }
      ],
      "stateMutability": "view",
      "type": "function"
    },
    {
      "inputs": [
        {
          "internalType": "uint256",
          "name": "tokenId",
          "type": "uint256"
        },
        {
          "internalType": "uint256",
          "name": "price",
          "type": "uint256"
        }
      ],
      "name": "resellToken",
      "outputs": [],
      "stateMutability": "payable",
      "type": "function"
    },
    {
      "inputs": [
        {
          "internalType": "address",
          "name": "from",
          "type": "address"
        },
        {
          "internalType": "address",
          "name": "to",
          "type": "address"
        },
        {
          "internalType": "uint256",
          "name": "tokenId",
          "type": "uint256"
        }
      ],
      "name": "safeTransferFrom",
      "outputs": [],
      "stateMutability": "nonpayable",
      "type": "function"
    },
    {
      "inputs": [
        {
          "internalType": "address",
          "name": "from",
          "type": "address"
        },
        {
          "internalType": "address",
          "name": "to",
          "type": "address"
        },
        {
          "internalType": "uint256",
          "name": "tokenId",
          "type": "uint256"
        },
        {
          "internalType": "bytes",
          "name": "data",
          "type": "bytes"
        }
      ],
      "name": "safeTransferFrom",
      "outputs": [],
      "stateMutability": "nonpayable",
      "type": "function"
    },
    {
      "inputs": [
        {
          "internalType": "address",
          "name": "operator",
          "type": "address"
        },
        {
          "internalType": "bool",
          "name": "approved",
          "type": "bool"
        }
      ],
      "name": "setApprovalForAll",
      "outputs": [],
      "stateMutability": "nonpayable",
      "type": "function"
    },
    {
      "inputs": [
        {
          "internalType": "bytes4",
          "name": "interfaceId",
          "type": "bytes4"
        }
      ],
      "name": "supportsInterface",
      "outputs": [
        {
          "internalType": "bool",
          "name": "",
          "type": "bool"
        }
      ],
      "stateMutability": "view",
      "type": "function"
    },
    {
      "inputs": [],
      "name": "symbol",
      "outputs": [
        {
          "internalType": "string",
          "name": "",
          "type": "string"
        }
      ],
      "stateMutability": "view",
      "type": "function"
    },
    {
      "inputs": [
        {
          "internalType": "uint256",
          "name": "tokenId",
          "type": "uint256"
        }
      ],
      "name": "tokenURI",
      "outputs": [
        {
          "internalType": "string",
          "name": "",
          "type": "string"
        }
      ],
      "stateMutability": "view",
      "type": "function"
    },
    {
      "inputs": [
        {
          "internalType": "address",
          "name": "from",
          "type": "address"
        },
        {
          "internalType": "address",
          "name": "to",
          "type": "address"
        },
        {
          "internalType": "uint256",
          "name": "tokenId",
          "type": "uint256"
        }
      ],
      "name": "transferFrom",
      "outputs": [],
      "stateMutability": "nonpayable",
      "type": "function"
    },
    {
      "inputs": [
        {
          "internalType": "uint256",
          "name": "_listingPrice",
          "type": "uint256"
        }
      ],
      "name": "updateListingPrice",
      "outputs": [],
      "stateMutability": "payable",
      "type": "function"
    }
  ],
  "bytecode": "0x6080604052662386f26fc100006009553480156200001c57600080fd5b506040518060400160405280601081526020017f4d657461766572736520546f6b656e73000000000000000000000000000000008152506040518060400160405280600481526020017f4d4554410000000000000000000000000000000000000000000000000000000081525081600090816200009a919062000370565b508060019081620000ac919062000370565b50505033600a60006101000a81548173ffffffffffffffffffffffffffffffffffffffff021916908373ffffffffffffffffffffffffffffffffffffffff16021790555062000457565b600081519050919050565b7f4e487b7100000000000000000000000000000000000000000000000000000000600052604160045260246000fd5b7f4e487b7100000000000000000000000000000000000000000000000000000000600052602260045260246000fd5b600060028204905060018216806200017857607f821691505b6020821081036200018e576200018d62000130565b5b50919050565b60008190508160005260206000209050919050565b60006020601f8301049050919050565b600082821b905092915050565b600060088302620001f87fffffffffffffffffffffffffffffffffffffffffffffffffffffffffffffffff82620001b9565b620002048683620001b9565b95508019841693508086168417925050509392505050565b6000819050919050565b6000819050919050565b6000620002516200024b62000245846200021c565b62000226565b6200021c565b9050919050565b6000819050919050565b6200026d8362000230565b620002856200027c8262000258565b848454620001c6565b825550505050565b600090565b6200029c6200028d565b620002a981848462000262565b505050565b5b81811015620002d157620002c560008262000292565b600181019050620002af565b5050565b601f8211156200032057620002ea8162000194565b620002f584620001a9565b8101602085101562000305578190505b6200031d6200031485620001a9565b830182620002ae565b50505b505050565b600082821c905092915050565b6000620003456000198460080262000325565b1980831691505092915050565b600062000360838362000332565b9150826002028217905092915050565b6200037b82620000f6565b67ffffffffffffffff81111562000397576200039662000101565b5b620003a382546200015f565b620003b0828285620002d5565b600060209050601f831160018114620003e85760008415620003d3578287015190505b620003df858262000352565b8655506200044f565b601f198416620003f88662000194565b60005b828110156200042257848901518255600182019150602085019450602081019050620003fb565b868310156200044257848901516200043e601f89168262000332565b8355505b6001600288020188555050505b505050505050565b61454980620004676000396000f3fe6080604052600436106101355760003560e01c80636352211e116100ab578063ae677aa31161006f578063ae677aa31461042d578063b88d4fde14610449578063be9af53614610472578063c87b56dd1461048e578063e219fc75146104cb578063e985e9c5146104e757610135565b80636352211e1461032f57806370a082311461036c57806372b3b620146103a957806395d89b41146103d9578063a22cb4651461040457610135565b806312e85585116100fd57806312e8558514610233578063202e37401461025e57806323b872dd14610289578063260070d8146102b257806342842e0e146102db57806345f8fa801461030457610135565b806301ffc9a71461013a57806306fdde0314610177578063081812fc146101a2578063095ea7b3146101df5780630f08efe014610208575b600080fd5b34801561014657600080fd5b50610161600480360381019061015c9190612c1b565b610524565b60405161016e9190612c63565b60405180910390f35b34801561018357600080fd5b5061018c610606565b6040516101999190612d0e565b60405180910390f35b3480156101ae57600080fd5b506101c960048036038101906101c49190612d66565b610698565b6040516101d69190612dd4565b60405180910390f35b3480156101eb57600080fd5b5061020660048036038101906102019190612e1b565b6106de565b005b34801561021457600080fd5b5061021d6107f5565b60405161022a9190612fb1565b60405180910390f35b34801561023f57600080fd5b50610248610a5d565b6040516102559190612fe2565b60405180910390f35b34801561026a57600080fd5b50610273610a67565b6040516102809190612fb1565b60405180910390f35b34801561029557600080fd5b506102b060048036038101906102ab9190612ffd565b610d53565b005b3480156102be57600080fd5b506102d960048036038101906102d49190612d66565b610db3565b005b3480156102e757600080fd5b5061030260048036038101906102fd9190612ffd565b61101e565b005b34801561031057600080fd5b5061031961103e565b6040516103269190612fb1565b60405180910390f35b34801561033b57600080fd5b5061035660048036038101906103519190612d66565b61132a565b6040516103639190612dd4565b60405180910390f35b34801561037857600080fd5b50610393600480360381019061038e9190613050565b6113db565b6040516103a09190612fe2565b60405180910390f35b6103c360048036038101906103be91906131b2565b611492565b6040516103d09190612fe2565b60405180910390f35b3480156103e557600080fd5b506103ee6114d4565b6040516103fb9190612d0e565b60405180910390f35b34801561041057600080fd5b5061042b6004803603810190610426919061323a565b611566565b005b61044760048036038101906104429190612d66565b61157c565b005b34801561045557600080fd5b50610470600480360381019061046b919061331b565b611616565b005b61048c60048036038101906104879190612d66565b611678565b005b34801561049a57600080fd5b506104b560048036038101906104b09190612d66565b6118b6565b6040516104c29190612d0e565b60405180910390f35b6104e560048036038101906104e0919061339e565b6119c8565b005b3480156104f357600080fd5b5061050e600480360381019061050991906133de565b611bbd565b60405161051b9190612c63565b60405180910390f35b60007f80ac58cd000000000000000000000000000000000000000000000000000000007bffffffffffffffffffffffffffffffffffffffffffffffffffffffff1916827bffffffffffffffffffffffffffffffffffffffffffffffffffffffff191614806105ef57507f5b5e139f000000000000000000000000000000000000000000000000000000007bffffffffffffffffffffffffffffffffffffffffffffffffffffffff1916827bffffffffffffffffffffffffffffffffffffffffffffffffffffffff1916145b806105ff57506105fe82611c51565b5b9050919050565b6060600080546106159061344d565b80601f01602080910402602001604051908101604052809291908181526020018280546106419061344d565b801561068e5780601f106106635761010080835404028352916020019161068e565b820191906000526020600020905b81548152906001019060200180831161067157829003601f168201915b5050505050905090565b60006106a382611cbb565b6004600083815260200190815260200160002060009054906101000a900473ffffffffffffffffffffffffffffffffffffffff169050919050565b60006106e98261132a565b90508073ffffffffffffffffffffffffffffffffffffffff168373ffffffffffffffffffffffffffffffffffffffff1603610759576040517f08c379a0000000000000000000000000000000000000000000000000000000008152600401610750906134f0565b60405180910390fd5b8073ffffffffffffffffffffffffffffffffffffffff16610778611d06565b73ffffffffffffffffffffffffffffffffffffffff1614806107a757506107a6816107a1611d06565b611bbd565b5b6107e6576040517f08c379a00000000000000000000000000000000000000000000000000000000081526004016107dd90613582565b60405180910390fd5b6107f08383611d0e565b505050565b606060006108036007611dc7565b905060006108116008611dc7565b61081b6007611dc7565b61082591906135d1565b90506000808267ffffffffffffffff81111561084457610843613087565b5b60405190808252806020026020018201604052801561087d57816020015b61086a612b52565b8152602001906001900390816108625790505b50905060005b84811015610a52573073ffffffffffffffffffffffffffffffffffffffff16600b60006001846108b39190613605565b815260200190815260200160002060020160009054906101000a900473ffffffffffffffffffffffffffffffffffffffff1673ffffffffffffffffffffffffffffffffffffffff1603610a3f57600060018261090f9190613605565b90506000600b60008381526020019081526020016000209050806040518060a0016040529081600082015481526020016001820160009054906101000a900473ffffffffffffffffffffffffffffffffffffffff1673ffffffffffffffffffffffffffffffffffffffff1673ffffffffffffffffffffffffffffffffffffffff1681526020016002820160009054906101000a900473ffffffffffffffffffffffffffffffffffffffff1673ffffffffffffffffffffffffffffffffffffffff1673ffffffffffffffffffffffffffffffffffffffff168152602001600382015481526020016004820160009054906101000a900460ff161515151581525050848681518110610a2257610a21613639565b5b6020026020010181905250600185610a3a9190613605565b945050505b8080610a4a90613668565b915050610883565b508094505050505090565b6000600954905090565b60606000610a756007611dc7565b905060008060005b83811015610b1d573373ffffffffffffffffffffffffffffffffffffffff16600b6000600184610aad9190613605565b815260200190815260200160002060020160009054906101000a900473ffffffffffffffffffffffffffffffffffffffff1673ffffffffffffffffffffffffffffffffffffffff1603610b0a57600183610b079190613605565b92505b8080610b1590613668565b915050610a7d565b5060008267ffffffffffffffff811115610b3a57610b39613087565b5b604051908082528060200260200182016040528015610b7357816020015b610b60612b52565b815260200190600190039081610b585790505b50905060005b84811015610d48573373ffffffffffffffffffffffffffffffffffffffff16600b6000600184610ba99190613605565b815260200190815260200160002060020160009054906101000a900473ffffffffffffffffffffffffffffffffffffffff1673ffffffffffffffffffffffffffffffffffffffff1603610d35576000600182610c059190613605565b90506000600b60008381526020019081526020016000209050806040518060a0016040529081600082015481526020016001820160009054906101000a900473ffffffffffffffffffffffffffffffffffffffff1673ffffffffffffffffffffffffffffffffffffffff1673ffffffffffffffffffffffffffffffffffffffff1681526020016002820160009054906101000a900473ffffffffffffffffffffffffffffffffffffffff1673ffffffffffffffffffffffffffffffffffffffff1673ffffffffffffffffffffffffffffffffffffffff168152602001600382015481526020016004820160009054906101000a900460ff161515151581525050848681518110610d1857610d17613639565b5b6020026020010181905250600185610d309190613605565b945050505b8080610d4090613668565b915050610b79565b508094505050505090565b610d64610d5e611d06565b82611dd5565b610da3576040517f08c379a0000000000000000000000000000000000000000000000000000000008152600401610d9a90613722565b60405180910390fd5b610dae838383611e6a565b505050565b3373ffffffffffffffffffffffffffffffffffffffff16600b600083815260200190815260200160002060010160009054906101000a900473ffffffffffffffffffffffffffffffffffffffff1673ffffffffffffffffffffffffffffffffffffffff1614610e57576040517f08c379a0000000000000000000000000000000000000000000000000000000008152600401610e4e906137b4565b60405180910390fd5b60001515600b600083815260200190815260200160002060040160009054906101000a900460ff16151514610ec1576040517f08c379a0000000000000000000000000000000000000000000000000000000008152600401610eb890613846565b60405180910390fd5b33600b600083815260200190815260200160002060020160006101000a81548173ffffffffffffffffffffffffffffffffffffffff021916908373ffffffffffffffffffffffffffffffffffffffff1602179055506000600b600083815260200190815260200160002060010160006101000a81548173ffffffffffffffffffffffffffffffffffffffff021916908373ffffffffffffffffffffffffffffffffffffffff1602179055506001600b600083815260200190815260200160002060040160006101000a81548160ff021916908315150217905550610fa560086120d0565b600a60009054906101000a900473ffffffffffffffffffffffffffffffffffffffff1673ffffffffffffffffffffffffffffffffffffffff166108fc6009549081150290604051600060405180830381858888f1935050505015801561100f573d6000803e3d6000fd5b5061101b303383611e6a565b50565b61103983838360405180602001604052806000815250611616565b505050565b6060600061104c6007611dc7565b905060008060005b838110156110f4573373ffffffffffffffffffffffffffffffffffffffff16600b60006001846110849190613605565b815260200190815260200160002060010160009054906101000a900473ffffffffffffffffffffffffffffffffffffffff1673ffffffffffffffffffffffffffffffffffffffff16036110e1576001836110de9190613605565b92505b80806110ec90613668565b915050611054565b5060008267ffffffffffffffff81111561111157611110613087565b5b60405190808252806020026020018201604052801561114a57816020015b611137612b52565b81526020019060019003908161112f5790505b50905060005b8481101561131f573373ffffffffffffffffffffffffffffffffffffffff16600b60006001846111809190613605565b815260200190815260200160002060010160009054906101000a900473ffffffffffffffffffffffffffffffffffffffff1673ffffffffffffffffffffffffffffffffffffffff160361130c5760006001826111dc9190613605565b90506000600b60008381526020019081526020016000209050806040518060a0016040529081600082015481526020016001820160009054906101000a900473ffffffffffffffffffffffffffffffffffffffff1673ffffffffffffffffffffffffffffffffffffffff1673ffffffffffffffffffffffffffffffffffffffff1681526020016002820160009054906101000a900473ffffffffffffffffffffffffffffffffffffffff1673ffffffffffffffffffffffffffffffffffffffff1673ffffffffffffffffffffffffffffffffffffffff168152602001600382015481526020016004820160009054906101000a900460ff1615151515815250508486815181106112ef576112ee613639565b5b60200260200101819052506001856113079190613605565b945050505b808061131790613668565b915050611150565b508094505050505090565b6000806002600084815260200190815260200160002060009054906101000a900473ffffffffffffffffffffffffffffffffffffffff169050600073ffffffffffffffffffffffffffffffffffffffff168173ffffffffffffffffffffffffffffffffffffffff16036113d2576040517f08c379a00000000000000000000000000000000000000000000000000000000081526004016113c9906138b2565b60405180910390fd5b80915050919050565b60008073ffffffffffffffffffffffffffffffffffffffff168273ffffffffffffffffffffffffffffffffffffffff160361144b576040517f08c379a000000000000000000000000000000000000000000000000000000000815260040161144290613944565b60405180910390fd5b600360008373ffffffffffffffffffffffffffffffffffffffff1673ffffffffffffffffffffffffffffffffffffffff168152602001908152602001600020549050919050565b600061149e60076120d0565b60006114aa6007611dc7565b90506114b633826120e6565b6114c081856122bf565b6114ca818461232c565b8091505092915050565b6060600180546114e39061344d565b80601f016020809104026020016040519081016040528092919081815260200182805461150f9061344d565b801561155c5780601f106115315761010080835404028352916020019161155c565b820191906000526020600020905b81548152906001019060200180831161153f57829003601f168201915b5050505050905090565b611578611571611d06565b838361252f565b5050565b3373ffffffffffffffffffffffffffffffffffffffff16600a60009054906101000a900473ffffffffffffffffffffffffffffffffffffffff1673ffffffffffffffffffffffffffffffffffffffff161461160c576040517f08c379a0000000000000000000000000000000000000000000000000000000008152600401611603906139b0565b60405180910390fd5b8060098190555050565b611627611621611d06565b83611dd5565b611666576040517f08c379a000000000000000000000000000000000000000000000000000000000815260040161165d90613722565b60405180910390fd5b6116728484848461269b565b50505050565b6000600b60008381526020019081526020016000206003015490506000600b600084815260200190815260200160002060010160009054906101000a900473ffffffffffffffffffffffffffffffffffffffff169050813414611710576040517f08c379a000000000000000000000000000000000000000000000000000000000815260040161170790613a42565b60405180910390fd5b33600b600085815260200190815260200160002060020160006101000a81548173ffffffffffffffffffffffffffffffffffffffff021916908373ffffffffffffffffffffffffffffffffffffffff1602179055506001600b600085815260200190815260200160002060040160006101000a81548160ff0219169083151502179055506000600b600085815260200190815260200160002060010160006101000a81548173ffffffffffffffffffffffffffffffffffffffff021916908373ffffffffffffffffffffffffffffffffffffffff1602179055506117f460086120d0565b6117ff303385611e6a565b600a60009054906101000a900473ffffffffffffffffffffffffffffffffffffffff1673ffffffffffffffffffffffffffffffffffffffff166108fc6009549081150290604051600060405180830381858888f19350505050158015611869573d6000803e3d6000fd5b508073ffffffffffffffffffffffffffffffffffffffff166108fc349081150290604051600060405180830381858888f193505050501580156118b0573d6000803e3d6000fd5b50505050565b60606118c182611cbb565b60006006600084815260200190815260200160002080546118e19061344d565b80601f016020809104026020016040519081016040528092919081815260200182805461190d9061344d565b801561195a5780601f1061192f5761010080835404028352916020019161195a565b820191906000526020600020905b81548152906001019060200180831161193d57829003601f168201915b50505050509050600061196b6126f7565b905060008151036119805781925050506119c3565b6000825111156119b557808260405160200161199d929190613a9e565b604051602081830303815290604052925050506119c3565b6119be8461270e565b925050505b919050565b3373ffffffffffffffffffffffffffffffffffffffff16600b600084815260200190815260200160002060020160009054906101000a900473ffffffffffffffffffffffffffffffffffffffff1673ffffffffffffffffffffffffffffffffffffffff1614611a6c576040517f08c379a0000000000000000000000000000000000000000000000000000000008152600401611a6390613b34565b60405180910390fd5b6009543414611ab0576040517f08c379a0000000000000000000000000000000000000000000000000000000008152600401611aa790613bc6565b60405180910390fd5b6000600b600084815260200190815260200160002060040160006101000a81548160ff02191690831515021790555080600b60008481526020019081526020016000206003018190555033600b600084815260200190815260200160002060010160006101000a81548173ffffffffffffffffffffffffffffffffffffffff021916908373ffffffffffffffffffffffffffffffffffffffff16021790555030600b600084815260200190815260200160002060020160006101000a81548173ffffffffffffffffffffffffffffffffffffffff021916908373ffffffffffffffffffffffffffffffffffffffff160217905550611bae6008612776565b611bb9333084611e6a565b5050565b6000600560008473ffffffffffffffffffffffffffffffffffffffff1673ffffffffffffffffffffffffffffffffffffffff16815260200190815260200160002060008373ffffffffffffffffffffffffffffffffffffffff1673ffffffffffffffffffffffffffffffffffffffff16815260200190815260200160002060009054906101000a900460ff16905092915050565b60007f01ffc9a7000000000000000000000000000000000000000000000000000000007bffffffffffffffffffffffffffffffffffffffffffffffffffffffff1916827bffffffffffffffffffffffffffffffffffffffffffffffffffffffff1916149050919050565b611cc4816127d2565b611d03576040517f08c379a0000000000000000000000000000000000000000000000000000000008152600401611cfa906138b2565b60405180910390fd5b50565b600033905090565b816004600083815260200190815260200160002060006101000a81548173ffffffffffffffffffffffffffffffffffffffff021916908373ffffffffffffffffffffffffffffffffffffffff160217905550808273ffffffffffffffffffffffffffffffffffffffff16611d818361132a565b73ffffffffffffffffffffffffffffffffffffffff167f8c5be1e5ebec7d5bd14f71427d1e84f3dd0314c0f7b2291e5b200ac8c7c3b92560405160405180910390a45050565b600081600001549050919050565b600080611de18361132a565b90508073ffffffffffffffffffffffffffffffffffffffff168473ffffffffffffffffffffffffffffffffffffffff161480611e235750611e228185611bbd565b5b80611e6157508373ffffffffffffffffffffffffffffffffffffffff16611e4984610698565b73ffffffffffffffffffffffffffffffffffffffff16145b91505092915050565b8273ffffffffffffffffffffffffffffffffffffffff16611e8a8261132a565b73ffffffffffffffffffffffffffffffffffffffff1614611ee0576040517f08c379a0000000000000000000000000000000000000000000000000000000008152600401611ed790613c58565b60405180910390fd5b600073ffffffffffffffffffffffffffffffffffffffff168273ffffffffffffffffffffffffffffffffffffffff1603611f4f576040517f08c379a0000000000000000000000000000000000000000000000000000000008152600401611f4690613cea565b60405180910390fd5b611f5a83838361283e565b611f65600082611d0e565b6001600360008573ffffffffffffffffffffffffffffffffffffffff1673ffffffffffffffffffffffffffffffffffffffff1681526020019081526020016000206000828254611fb591906135d1565b925050819055506001600360008473ffffffffffffffffffffffffffffffffffffffff1673ffffffffffffffffffffffffffffffffffffffff168152602001908152602001600020600082825461200c9190613605565b92505081905550816002600083815260200190815260200160002060006101000a81548173ffffffffffffffffffffffffffffffffffffffff021916908373ffffffffffffffffffffffffffffffffffffffff160217905550808273ffffffffffffffffffffffffffffffffffffffff168473ffffffffffffffffffffffffffffffffffffffff167fddf252ad1be2c89b69c2b068fc378daa952ba7f163c4a11628f55a4df523b3ef60405160405180910390a46120cb838383612843565b505050565b6001816000016000828254019250508190555050565b600073ffffffffffffffffffffffffffffffffffffffff168273ffffffffffffffffffffffffffffffffffffffff1603612155576040517f08c379a000000000000000000000000000000000000000000000000000000000815260040161214c90613d56565b60405180910390fd5b61215e816127d2565b1561219e576040517f08c379a000000000000000000000000000000000000000000000000000000000815260040161219590613dc2565b60405180910390fd5b6121aa6000838361283e565b6001600360008473ffffffffffffffffffffffffffffffffffffffff1673ffffffffffffffffffffffffffffffffffffffff16815260200190815260200160002060008282546121fa9190613605565b92505081905550816002600083815260200190815260200160002060006101000a81548173ffffffffffffffffffffffffffffffffffffffff021916908373ffffffffffffffffffffffffffffffffffffffff160217905550808273ffffffffffffffffffffffffffffffffffffffff16600073ffffffffffffffffffffffffffffffffffffffff167fddf252ad1be2c89b69c2b068fc378daa952ba7f163c4a11628f55a4df523b3ef60405160405180910390a46122bb60008383612843565b5050565b6122c8826127d2565b612307576040517f08c379a00000000000000000000000000000000000000000000000000000000081526004016122fe90613e54565b60405180910390fd5b806006600084815260200190815260200160002090816123279190614020565b505050565b6000811161236f576040517f08c379a00000000000000000000000000000000000000000000000000000000081526004016123669061413e565b60405180910390fd5b60095434146123b3576040517f08c379a00000000000000000000000000000000000000000000000000000000081526004016123aa906141d0565b60405180910390fd5b6040518060a001604052808381526020013373ffffffffffffffffffffffffffffffffffffffff1681526020013073ffffffffffffffffffffffffffffffffffffffff16815260200182815260200160001515815250600b60008481526020019081526020016000206000820151816000015560208201518160010160006101000a81548173ffffffffffffffffffffffffffffffffffffffff021916908373ffffffffffffffffffffffffffffffffffffffff16021790555060408201518160020160006101000a81548173ffffffffffffffffffffffffffffffffffffffff021916908373ffffffffffffffffffffffffffffffffffffffff1602179055506060820151816003015560808201518160040160006101000a81548160ff0219169083151502179055509050506124ec333084611e6a565b817fb640004f1d14576d0c209e240cad0410e0d8c0c33a09375861fbadae2588a98d333084600060405161252394939291906141f0565b60405180910390a25050565b8173ffffffffffffffffffffffffffffffffffffffff168373ffffffffffffffffffffffffffffffffffffffff160361259d576040517f08c379a000000000000000000000000000000000000000000000000000000000815260040161259490614281565b60405180910390fd5b80600560008573ffffffffffffffffffffffffffffffffffffffff1673ffffffffffffffffffffffffffffffffffffffff16815260200190815260200160002060008473ffffffffffffffffffffffffffffffffffffffff1673ffffffffffffffffffffffffffffffffffffffff16815260200190815260200160002060006101000a81548160ff0219169083151502179055508173ffffffffffffffffffffffffffffffffffffffff168373ffffffffffffffffffffffffffffffffffffffff167f17307eab39ab6107e8899845ad3d59bd9653f200f220920489ca2b5937696c318360405161268e9190612c63565b60405180910390a3505050565b6126a6848484611e6a565b6126b284848484612848565b6126f1576040517f08c379a00000000000000000000000000000000000000000000000000000000081526004016126e890614313565b60405180910390fd5b50505050565b606060405180602001604052806000815250905090565b606061271982611cbb565b60006127236126f7565b90506000815111612743576040518060200160405280600081525061276e565b8061274d846129cf565b60405160200161275e929190613a9e565b6040516020818303038152906040525b915050919050565b600081600001549050600081116127c2576040517f08c379a00000000000000000000000000000000000000000000000000000000081526004016127b99061437f565b60405180910390fd5b6001810382600001819055505050565b60008073ffffffffffffffffffffffffffffffffffffffff166002600084815260200190815260200160002060009054906101000a900473ffffffffffffffffffffffffffffffffffffffff1673ffffffffffffffffffffffffffffffffffffffff1614159050919050565b505050565b505050565b60006128698473ffffffffffffffffffffffffffffffffffffffff16612b2f565b156129c2578373ffffffffffffffffffffffffffffffffffffffff1663150b7a02612892611d06565b8786866040518563ffffffff1660e01b81526004016128b494939291906143f4565b6020604051808303816000875af19250505080156128f057506040513d601f19601f820116820180604052508101906128ed9190614455565b60015b612972573d8060008114612920576040519150601f19603f3d011682016040523d82523d6000602084013e612925565b606091505b50600081510361296a576040517f08c379a000000000000000000000000000000000000000000000000000000000815260040161296190614313565b60405180910390fd5b805181602001fd5b63150b7a0260e01b7bffffffffffffffffffffffffffffffffffffffffffffffffffffffff1916817bffffffffffffffffffffffffffffffffffffffffffffffffffffffff1916149150506129c7565b600190505b949350505050565b606060008203612a16576040518060400160405280600181526020017f30000000000000000000000000000000000000000000000000000000000000008152509050612b2a565b600082905060005b60008214612a48578080612a3190613668565b915050600a82612a4191906144b1565b9150612a1e565b60008167ffffffffffffffff811115612a6457612a63613087565b5b6040519080825280601f01601f191660200182016040528015612a965781602001600182028036833780820191505090505b5090505b60008514612b2357600182612aaf91906135d1565b9150600a85612abe91906144e2565b6030612aca9190613605565b60f81b818381518110612ae057612adf613639565b5b60200101907effffffffffffffffffffffffffffffffffffffffffffffffffffffffffffff1916908160001a905350600a85612b1c91906144b1565b9450612a9a565b8093505050505b919050565b6000808273ffffffffffffffffffffffffffffffffffffffff163b119050919050565b6040518060a0016040528060008152602001600073ffffffffffffffffffffffffffffffffffffffff168152602001600073ffffffffffffffffffffffffffffffffffffffff168152602001600081526020016000151581525090565b6000604051905090565b600080fd5b600080fd5b60007fffffffff0000000000000000000000000000000000000000000000000000000082169050919050565b612bf881612bc3565b8114612c0357600080fd5b50565b600081359050612c1581612bef565b92915050565b600060208284031215612c3157612c30612bb9565b5b6000612c3f84828501612c06565b91505092915050565b60008115159050919050565b612c5d81612c48565b82525050565b6000602082019050612c786000830184612c54565b92915050565b600081519050919050565b600082825260208201905092915050565b60005b83811015612cb8578082015181840152602081019050612c9d565b60008484015250505050565b6000601f19601f8301169050919050565b6000612ce082612c7e565b612cea8185612c89565b9350612cfa818560208601612c9a565b612d0381612cc4565b840191505092915050565b60006020820190508181036000830152612d288184612cd5565b905092915050565b6000819050919050565b612d4381612d30565b8114612d4e57600080fd5b50565b600081359050612d6081612d3a565b92915050565b600060208284031215612d7c57612d7b612bb9565b5b6000612d8a84828501612d51565b91505092915050565b600073ffffffffffffffffffffffffffffffffffffffff82169050919050565b6000612dbe82612d93565b9050919050565b612dce81612db3565b82525050565b6000602082019050612de96000830184612dc5565b92915050565b612df881612db3565b8114612e0357600080fd5b50565b600081359050612e1581612def565b92915050565b60008060408385031215612e3257612e31612bb9565b5b6000612e4085828601612e06565b9250506020612e5185828601612d51565b9150509250929050565b600081519050919050565b600082825260208201905092915050565b6000819050602082019050919050565b612e9081612d30565b82525050565b6000612ea182612d93565b9050919050565b612eb181612e96565b82525050565b612ec081612c48565b82525050565b60a082016000820151612edc6000850182612e87565b506020820151612eef6020850182612ea8565b506040820151612f026040850182612ea8565b506060820151612f156060850182612e87565b506080820151612f286080850182612eb7565b50505050565b6000612f3a8383612ec6565b60a08301905092915050565b6000602082019050919050565b6000612f5e82612e5b565b612f688185612e66565b9350612f7383612e77565b8060005b83811015612fa4578151612f8b8882612f2e565b9750612f9683612f46565b925050600181019050612f77565b5085935050505092915050565b60006020820190508181036000830152612fcb8184612f53565b905092915050565b612fdc81612d30565b82525050565b6000602082019050612ff76000830184612fd3565b92915050565b60008060006060848603121561301657613015612bb9565b5b600061302486828701612e06565b935050602061303586828701612e06565b925050604061304686828701612d51565b9150509250925092565b60006020828403121561306657613065612bb9565b5b600061307484828501612e06565b91505092915050565b600080fd5b600080fd5b7f4e487b7100000000000000000000000000000000000000000000000000000000600052604160045260246000fd5b6130bf82612cc4565b810181811067ffffffffffffffff821117156130de576130dd613087565b5b80604052505050565b60006130f1612baf565b90506130fd82826130b6565b919050565b600067ffffffffffffffff82111561311d5761311c613087565b5b61312682612cc4565b9050602081019050919050565b82818337600083830152505050565b600061315561315084613102565b6130e7565b90508281526020810184848401111561317157613170613082565b5b61317c848285613133565b509392505050565b600082601f8301126131995761319861307d565b5b81356131a9848260208601613142565b91505092915050565b600080604083850312156131c9576131c8612bb9565b5b600083013567ffffffffffffffff8111156131e7576131e6612bbe565b5b6131f385828601613184565b925050602061320485828601612d51565b9150509250929050565b61321781612c48565b811461322257600080fd5b50565b6000813590506132348161320e565b92915050565b6000806040838503121561325157613250612bb9565b5b600061325f85828601612e06565b925050602061327085828601613225565b9150509250929050565b600067ffffffffffffffff82111561329557613294613087565b5b61329e82612cc4565b9050602081019050919050565b60006132be6132b98461327a565b6130e7565b9050828152602081018484840111156132da576132d9613082565b5b6132e5848285613133565b509392505050565b600082601f8301126133025761330161307d565b5b81356133128482602086016132ab565b91505092915050565b6000806000806080858703121561333557613334612bb9565b5b600061334387828801612e06565b945050602061335487828801612e06565b935050604061336587828801612d51565b925050606085013567ffffffffffffffff81111561338657613385612bbe565b5b613392878288016132ed565b91505092959194509250565b600080604083850312156133b5576133b4612bb9565b5b60006133c385828601612d51565b92505060206133d485828601612d51565b9150509250929050565b600080604083850312156133f5576133f4612bb9565b5b600061340385828601612e06565b925050602061341485828601612e06565b9150509250929050565b7f4e487b7100000000000000000000000000000000000000000000000000000000600052602260045260246000fd5b6000600282049050600182168061346557607f821691505b6020821081036134785761347761341e565b5b50919050565b7f4552433732313a20617070726f76616c20746f2063757272656e74206f776e6560008201527f7200000000000000000000000000000000000000000000000000000000000000602082015250565b60006134da602183612c89565b91506134e58261347e565b604082019050919050565b60006020820190508181036000830152613509816134cd565b9050919050565b7f4552433732313a20617070726f76652063616c6c6572206973206e6f7420746f60008201527f6b656e206f776e6572206e6f7220617070726f76656420666f7220616c6c0000602082015250565b600061356c603e83612c89565b915061357782613510565b604082019050919050565b6000602082019050818103600083015261359b8161355f565b9050919050565b7f4e487b7100000000000000000000000000000000000000000000000000000000600052601160045260246000fd5b60006135dc82612d30565b91506135e783612d30565b92508282039050818111156135ff576135fe6135a2565b5b92915050565b600061361082612d30565b915061361b83612d30565b9250828201905080821115613633576136326135a2565b5b92915050565b7f4e487b7100000000000000000000000000000000000000000000000000000000600052603260045260246000fd5b600061367382612d30565b91507fffffffffffffffffffffffffffffffffffffffffffffffffffffffffffffffff82036136a5576136a46135a2565b5b600182019050919050565b7f4552433732313a2063616c6c6572206973206e6f7420746f6b656e206f776e6560008201527f72206e6f7220617070726f766564000000000000000000000000000000000000602082015250565b600061370c602e83612c89565b9150613717826136b0565b604082019050919050565b6000602082019050818103600083015261373b816136ff565b9050919050565b7f4f6e6c792069746d652073656c6c65722063616e20706572666f726d2074686960008201527f73206f7065726174696f6e000000000000000000000000000000000000000000602082015250565b600061379e602b83612c89565b91506137a982613742565b604082019050919050565b600060208201905081810360008301526137cd81613791565b9050919050565b7f4f6e6c792063616e63656c206974656d20776869636820617265206e6f74207360008201527f6f6c642079657400000000000000000000000000000000000000000000000000602082015250565b6000613830602783612c89565b915061383b826137d4565b604082019050919050565b6000602082019050818103600083015261385f81613823565b9050919050565b7f4552433732313a20696e76616c696420746f6b656e2049440000000000000000600082015250565b600061389c601883612c89565b91506138a782613866565b602082019050919050565b600060208201905081810360008301526138cb8161388f565b9050919050565b7f4552433732313a2061646472657373207a65726f206973206e6f74206120766160008201527f6c6964206f776e65720000000000000000000000000000000000000000000000602082015250565b600061392e602983612c89565b9150613939826138d2565b604082019050919050565b6000602082019050818103600083015261395d81613921565b9050919050565b7f4f776e65722063616e206368616e6765207072696365206f6e6c790000000000600082015250565b600061399a601b83612c89565b91506139a582613964565b602082019050919050565b600060208201905081810360008301526139c98161398d565b9050919050565b7f506c65617365207375626d6974207468652061736b696e67207072696365206960008201527f6e206f7264657220746f20636f6d706c65746520707572636861736500000000602082015250565b6000613a2c603c83612c89565b9150613a37826139d0565b604082019050919050565b60006020820190508181036000830152613a5b81613a1f565b9050919050565b600081905092915050565b6000613a7882612c7e565b613a828185613a62565b9350613a92818560208601612c9a565b80840191505092915050565b6000613aaa8285613a6d565b9150613ab68284613a6d565b91508190509392505050565b7f4f6e6c79206974656d206f6e7765722063616e20706572666f726d207468697360008201527f206f7065726174696f6e00000000000000000000000000000000000000000000602082015250565b6000613b1e602a83612c89565b9150613b2982613ac2565b604082019050919050565b60006020820190508181036000830152613b4d81613b11565b9050919050565b7f5072696365206d75737420626520657175616c20746f206c697374696e67207060008201527f7269636500000000000000000000000000000000000000000000000000000000602082015250565b6000613bb0602483612c89565b9150613bbb82613b54565b604082019050919050565b60006020820190508181036000830152613bdf81613ba3565b9050919050565b7f4552433732313a207472616e736665722066726f6d20696e636f72726563742060008201527f6f776e6572000000000000000000000000000000000000000000000000000000602082015250565b6000613c42602583612c89565b9150613c4d82613be6565b604082019050919050565b60006020820190508181036000830152613c7181613c35565b9050919050565b7f4552433732313a207472616e7366657220746f20746865207a65726f2061646460008201527f7265737300000000000000000000000000000000000000000000000000000000602082015250565b6000613cd4602483612c89565b9150613cdf82613c78565b604082019050919050565b60006020820190508181036000830152613d0381613cc7565b9050919050565b7f4552433732313a206d696e7420746f20746865207a65726f2061646472657373600082015250565b6000613d40602083612c89565b9150613d4b82613d0a565b602082019050919050565b60006020820190508181036000830152613d6f81613d33565b9050919050565b7f4552433732313a20746f6b656e20616c7265616479206d696e74656400000000600082015250565b6000613dac601c83612c89565b9150613db782613d76565b602082019050919050565b60006020820190508181036000830152613ddb81613d9f565b9050919050565b7f45524337323155524953746f726167653a2055524920736574206f66206e6f6e60008201527f6578697374656e7420746f6b656e000000000000000000000000000000000000602082015250565b6000613e3e602e83612c89565b9150613e4982613de2565b604082019050919050565b60006020820190508181036000830152613e6d81613e31565b9050919050565b60008190508160005260206000209050919050565b60006020601f8301049050919050565b600082821b905092915050565b600060088302613ed67fffffffffffffffffffffffffffffffffffffffffffffffffffffffffffffffff82613e99565b613ee08683613e99565b95508019841693508086168417925050509392505050565b6000819050919050565b6000613f1d613f18613f1384612d30565b613ef8565b612d30565b9050919050565b6000819050919050565b613f3783613f02565b613f4b613f4382613f24565b848454613ea6565b825550505050565b600090565b613f60613f53565b613f6b818484613f2e565b505050565b5b81811015613f8f57613f84600082613f58565b600181019050613f71565b5050565b601f821115613fd457613fa581613e74565b613fae84613e89565b81016020851015613fbd578190505b613fd1613fc985613e89565b830182613f70565b50505b505050565b600082821c905092915050565b6000613ff760001984600802613fd9565b1980831691505092915050565b60006140108383613fe6565b9150826002028217905092915050565b61402982612c7e565b67ffffffffffffffff81111561404257614041613087565b5b61404c825461344d565b614057828285613f93565b600060209050601f83116001811461408a5760008415614078578287015190505b6140828582614004565b8655506140ea565b601f19841661409886613e74565b60005b828110156140c05784890151825560018201915060208501945060208101905061409b565b868310156140dd57848901516140d9601f891682613fe6565b8355505b6001600288020188555050505b505050505050565b7f5072696365206d7573742062652067726561746572207468616e207a65726f00600082015250565b6000614128601f83612c89565b9150614133826140f2565b602082019050919050565b600060208201905081810360008301526141578161411b565b9050919050565b7f5072696365206d75737420626520657175616c206c697374696e67207072696360008201527f6500000000000000000000000000000000000000000000000000000000000000602082015250565b60006141ba602183612c89565b91506141c58261415e565b604082019050919050565b600060208201905081810360008301526141e9816141ad565b9050919050565b60006080820190506142056000830187612dc5565b6142126020830186612dc5565b61421f6040830185612fd3565b61422c6060830184612c54565b95945050505050565b7f4552433732313a20617070726f766520746f2063616c6c657200000000000000600082015250565b600061426b601983612c89565b915061427682614235565b602082019050919050565b6000602082019050818103600083015261429a8161425e565b9050919050565b7f4552433732313a207472616e7366657220746f206e6f6e20455243373231526560008201527f63656976657220696d706c656d656e7465720000000000000000000000000000602082015250565b60006142fd603283612c89565b9150614308826142a1565b604082019050919050565b6000602082019050818103600083015261432c816142f0565b9050919050565b7f436f756e7465723a2064656372656d656e74206f766572666c6f770000000000600082015250565b6000614369601b83612c89565b915061437482614333565b602082019050919050565b600060208201905081810360008301526143988161435c565b9050919050565b600081519050919050565b600082825260208201905092915050565b60006143c68261439f565b6143d081856143aa565b93506143e0818560208601612c9a565b6143e981612cc4565b840191505092915050565b60006080820190506144096000830187612dc5565b6144166020830186612dc5565b6144236040830185612fd3565b818103606083015261443581846143bb565b905095945050505050565b60008151905061444f81612bef565b92915050565b60006020828403121561446b5761446a612bb9565b5b600061447984828501614440565b91505092915050565b7f4e487b7100000000000000000000000000000000000000000000000000000000600052601260045260246000fd5b60006144bc82612d30565b91506144c783612d30565b9250826144d7576144d6614482565b5b828204905092915050565b60006144ed82612d30565b91506144f883612d30565b92508261450857614507614482565b5b82820690509291505056fea264697066735822122097724c02b919938612355f627be1fc9682a807a6b66b52a1950be0fb47b8e74164736f6c63430008110033",
  "linkReferences": {},
  "deployedLinkReferences": {}
}